{
  "contractName": "test",
  "abi": [
    {
      "constant": true,
      "inputs": [],
      "name": "owner",
      "outputs": [
        {
          "name": "",
          "type": "address"
        }
      ],
      "payable": false,
      "stateMutability": "view",
      "type": "function"
    },
    {
      "inputs": [],
      "payable": false,
      "stateMutability": "nonpayable",
      "type": "constructor"
    },
    {
      "constant": false,
      "inputs": [
        {
          "name": "newCorpAddr",
          "type": "address"
        },
        {
          "name": "info",
          "type": "string"
        },
        {
          "name": "ty",
          "type": "bool"
        }
      ],
      "name": "initCorp",
      "outputs": [
        {
          "name": "",
          "type": "bool"
        }
      ],
      "payable": true,
      "stateMutability": "payable",
      "type": "function"
    },
    {
      "constant": false,
      "inputs": [
        {
          "name": "corpAddr",
          "type": "address"
        }
      ],
      "name": "queryCorp",
      "outputs": [
        {
          "components": [
            {
              "name": "Info",
              "type": "string"
            },
            {
              "name": "CERs",
              "type": "int256"
            },
            {
              "name": "Quota",
              "type": "int256"
            },
            {
              "name": "Money",
              "type": "int256"
            },
            {
              "name": "Type",
              "type": "bool"
            }
          ],
          "name": "",
          "type": "tuple"
        }
      ],
      "payable": false,
      "stateMutability": "nonpayable",
      "type": "function"
    },
    {
      "constant": false,
      "inputs": [
        {
          "name": "toCorpAddr",
          "type": "address"
        },
        {
          "name": "typeOfAsset",
          "type": "bool"
        },
        {
          "name": "amountOfAsset",
          "type": "int256"
        }
      ],
      "name": "initTradeQuest",
      "outputs": [],
      "payable": false,
      "stateMutability": "nonpayable",
      "type": "function"
    },
    {
      "constant": false,
      "inputs": [
        {
          "name": "fromCorp",
          "type": "address"
        },
        {
          "name": "toCorp",
          "type": "address"
        },
        {
          "name": "CERs",
          "type": "int256"
        },
        {
          "name": "Money",
          "type": "int256"
        }
      ],
      "name": "transferCERs",
      "outputs": [],
      "payable": true,
      "stateMutability": "payable",
      "type": "function"
    },
    {
      "constant": false,
      "inputs": [
        {
          "name": "fromCorp",
          "type": "address"
        },
        {
          "name": "toCorp",
          "type": "address"
        },
        {
          "name": "Quota",
          "type": "int256"
        },
        {
          "name": "Money",
          "type": "int256"
        }
      ],
      "name": "transferQuota",
      "outputs": [],
      "payable": true,
      "stateMutability": "payable",
      "type": "function"
    }
  ],
  "bytecode": "0x608060405234801561001057600080fd5b50336000806101000a81548173ffffffffffffffffffffffffffffffffffffffff021916908373ffffffffffffffffffffffffffffffffffffffff160217905550610dee806100606000396000f3fe608060405260043610610072576000357c010000000000000000000000000000000000000000000000000000000090048063223dbbce146100775780633436e894146100a757806341e57fdb146100d0578063577a4f011461010d5780638da5cb5b14610129578063a2dbabeb14610154575b600080fd5b610091600480360361008c9190810190610af5565b610170565b60405161009e9190610c50565b60405180910390f35b3480156100b357600080fd5b506100ce60048036036100c99190810190610aa6565b610314565b005b3480156100dc57600080fd5b506100f760048036036100f29190810190610a1a565b61042b565b6040516101049190610c6b565b60405180910390f35b61012760048036036101229190810190610a43565b610560565b005b34801561013557600080fd5b5061013e6106f6565b60405161014b9190610c35565b60405180910390f35b61016e60048036036101699190810190610a43565b61071b565b005b60008060009054906101000a900473ffffffffffffffffffffffffffffffffffffffff1673ffffffffffffffffffffffffffffffffffffffff163373ffffffffffffffffffffffffffffffffffffffff161415156101cd57600080fd5b60018490806001815401808255809150509060018203906000526020600020016000909192909190916101000a81548173ffffffffffffffffffffffffffffffffffffffff021916908373ffffffffffffffffffffffffffffffffffffffff1602179055505061023b6108b1565b60a060405190810160405280858152602001606481526020016064815260200160008152602001841515815250905080600260008773ffffffffffffffffffffffffffffffffffffffff1673ffffffffffffffffffffffffffffffffffffffff16815260200190815260200160002060008201518160000190805190602001906102c69291906108e3565b5060208201518160010155604082015181600201556060820151816003015560808201518160040160006101000a81548160ff02191690831515021790555090505060019150509392505050565b600360008473ffffffffffffffffffffffffffffffffffffffff1673ffffffffffffffffffffffffffffffffffffffff1681526020019081526020016000206060604051908101604052803373ffffffffffffffffffffffffffffffffffffffff1681526020018415158152602001838152509080600181540180825580915050906001820390600052602060002090600202016000909192909190915060008201518160000160006101000a81548173ffffffffffffffffffffffffffffffffffffffff021916908373ffffffffffffffffffffffffffffffffffffffff16021790555060208201518160000160146101000a81548160ff02191690831515021790555060408201518160010155505050505050565b6104336108b1565b600260008373ffffffffffffffffffffffffffffffffffffffff1673ffffffffffffffffffffffffffffffffffffffff16815260200190815260200160002060a06040519081016040529081600082018054600181600116156101000203166002900480601f0160208091040260200160405190810160405280929190818152602001828054600181600116156101000203166002900480156105175780601f106104ec57610100808354040283529160200191610517565b820191906000526020600020905b8154815290600101906020018083116104fa57829003601f168201915b505050505081526020016001820154815260200160028201548152602001600382015481526020016004820160009054906101000a900460ff1615151515815250509050919050565b81600260008673ffffffffffffffffffffffffffffffffffffffff1673ffffffffffffffffffffffffffffffffffffffff168152602001908152602001600020600201541315156105b057600080fd5b81600260008673ffffffffffffffffffffffffffffffffffffffff1673ffffffffffffffffffffffffffffffffffffffff1681526020019081526020016000206002016000828254039250508190555080600260008673ffffffffffffffffffffffffffffffffffffffff1673ffffffffffffffffffffffffffffffffffffffff1681526020019081526020016000206003016000828254019250508190555081600260008573ffffffffffffffffffffffffffffffffffffffff1673ffffffffffffffffffffffffffffffffffffffff1681526020019081526020016000206002016000828254019250508190555080600260008573ffffffffffffffffffffffffffffffffffffffff1673ffffffffffffffffffffffffffffffffffffffff1681526020019081526020016000206003016000828254039250508190555050505050565b6000809054906101000a900473ffffffffffffffffffffffffffffffffffffffff1681565b81600260008673ffffffffffffffffffffffffffffffffffffffff1673ffffffffffffffffffffffffffffffffffffffff1681526020019081526020016000206001015413151561076b57600080fd5b81600260008673ffffffffffffffffffffffffffffffffffffffff1673ffffffffffffffffffffffffffffffffffffffff1681526020019081526020016000206001016000828254039250508190555080600260008673ffffffffffffffffffffffffffffffffffffffff1673ffffffffffffffffffffffffffffffffffffffff1681526020019081526020016000206003016000828254019250508190555081600260008573ffffffffffffffffffffffffffffffffffffffff1673ffffffffffffffffffffffffffffffffffffffff1681526020019081526020016000206001016000828254019250508190555080600260008573ffffffffffffffffffffffffffffffffffffffff1673ffffffffffffffffffffffffffffffffffffffff1681526020019081526020016000206003016000828254039250508190555050505050565b60a060405190810160405280606081526020016000815260200160008152602001600081526020016000151581525090565b828054600181600116156101000203166002900490600052602060002090601f016020900481019282601f1061092457805160ff1916838001178555610952565b82800160010185558215610952579182015b82811115610951578251825591602001919060010190610936565b5b50905061095f9190610963565b5090565b61098591905b80821115610981576000816000905550600101610969565b5090565b90565b60006109948235610d39565b905092915050565b60006109a88235610d4b565b905092915050565b60006109bc8235610d57565b905092915050565b600082601f83011215156109d757600080fd5b81356109ea6109e582610cba565b610c8d565b91508082526020830160208301858383011115610a0657600080fd5b610a11838284610d61565b50505092915050565b600060208284031215610a2c57600080fd5b6000610a3a84828501610988565b91505092915050565b60008060008060808587031215610a5957600080fd5b6000610a6787828801610988565b9450506020610a7887828801610988565b9350506040610a89878288016109b0565b9250506060610a9a878288016109b0565b91505092959194509250565b600080600060608486031215610abb57600080fd5b6000610ac986828701610988565b9350506020610ada8682870161099c565b9250506040610aeb868287016109b0565b9150509250925092565b600080600060608486031215610b0a57600080fd5b6000610b1886828701610988565b935050602084013567ffffffffffffffff811115610b3557600080fd5b610b41868287016109c4565b9250506040610b528682870161099c565b9150509250925092565b610b6581610cf1565b82525050565b610b7481610d03565b82525050565b610b8381610d0f565b82525050565b6000610b9482610ce6565b808452610ba8816020860160208601610d70565b610bb181610da3565b602085010191505092915050565b600060a0830160008301518482036000860152610bdc8282610b89565b9150506020830151610bf16020860182610b7a565b506040830151610c046040860182610b7a565b506060830151610c176060860182610b7a565b506080830151610c2a6080860182610b6b565b508091505092915050565b6000602082019050610c4a6000830184610b5c565b92915050565b6000602082019050610c656000830184610b6b565b92915050565b60006020820190508181036000830152610c858184610bbf565b905092915050565b6000604051905081810181811067ffffffffffffffff82111715610cb057600080fd5b8060405250919050565b600067ffffffffffffffff821115610cd157600080fd5b601f19601f8301169050602081019050919050565b600081519050919050565b6000610cfc82610d19565b9050919050565b60008115159050919050565b6000819050919050565b600073ffffffffffffffffffffffffffffffffffffffff82169050919050565b6000610d4482610d19565b9050919050565b60008115159050919050565b6000819050919050565b82818337600083830152505050565b60005b83811015610d8e578082015181840152602081019050610d73565b83811115610d9d576000848401525b50505050565b6000601f19601f830116905091905056fea265627a7a72305820eb27caa8b1c5594afffa2f527f83150d4408d8bafabad5002bc9dcf40d2c1b296c6578706572696d656e74616cf50037",
  "source": "// SPDX-License-Identifier: MIT\npragma experimental ABIEncoderV2;\npragma solidity >=0.4.22 <0.9.0;\n\ncontract test {\n\n    struct Corp {\n        string  Info;\n        int     CERs;\n        int     Quota;\n        int     Money;\n        bool    Type;\n    }\n\n    struct tradeQuest {\n        address fromCorpAddr;\n        bool    typeOfAsset;\n        int     amountOfAsset;\n    }\n\n    //合约的拥有者\n    address public owner;\n    address[] corpList;\n    // type:\n    //      0: 控排 出售\n    //      1: 减排 买入\n    mapping (address => Corp) corpMap;\n    mapping (address => tradeQuest[]) tradeQuestMap;\n\n    constructor() public {\n       owner = msg.sender;\n    }\n\n    function initCorp(address newCorpAddr, string memory info, bool ty) public payable returns (bool) {\n       /* require(msg.sender == owner && corpNotExist(newCorpAddr)); */\n       require(msg.sender == owner);\n       corpList.push(newCorpAddr);\n       Corp memory tmpCorp = Corp(info, 100, 100, 0, ty);\n       corpMap[newCorpAddr] = tmpCorp;\n       return true;\n    }\n\n    function queryCorp(address corpAddr) public returns (Corp memory) {\n        return corpMap[corpAddr];\n    }\n\n    function initTradeQuest(address toCorpAddr, bool typeOfAsset, int amountOfAsset) public {\n        tradeQuestMap[toCorpAddr].push(tradeQuest(msg.sender, typeOfAsset, amountOfAsset));\n    }\n\n    function transferCERs(address fromCorp, address toCorp, int CERs, int Money) public payable {\n       require(corpMap[fromCorp].CERs > CERs);\n       corpMap[fromCorp].CERs -= CERs;\n       corpMap[fromCorp].Money += Money;\n\n       corpMap[toCorp].CERs += CERs;\n       corpMap[toCorp].Money -= Money;\n    }\n\n    function transferQuota(address fromCorp, address toCorp, int Quota, int Money) public payable {\n       require(corpMap[fromCorp].Quota > Quota);\n       corpMap[fromCorp].Quota -= Quota;\n       corpMap[fromCorp].Money += Money;\n\n       corpMap[toCorp].Quota += Quota;\n       corpMap[toCorp].Money -= Money;\n    }\n}\n",
  "sourcePath": "/Users/leezh/Downloads/Lab/green_eth/0117/contracts/test.sol",
  "compiler": {
    "name": "solc",
    "version": "0.5.1+commit.c8a2cb62.Linux.g++"
  },
  "schemaVersion": "3.3.3",
  "updatedAt": "2021-01-20T12:26:06.997Z",
  "networkType": "ethereum",
  "devdoc": {
    "methods": {}
  },
  "userdoc": {
    "methods": {}
  }
}